{
  "contractName": "RoadBehaviour",
  "abi": [
    {
      "constant": true,
      "inputs": [
        {
          "name": "",
          "type": "address"
        }
      ],
      "name": "coinBalances",
      "outputs": [
        {
          "name": "",
          "type": "uint256"
        }
      ],
      "payable": false,
      "stateMutability": "view",
      "type": "function"
    },
    {
      "inputs": [],
      "payable": false,
      "stateMutability": "nonpayable",
      "type": "constructor"
    },
    {
      "constant": true,
      "inputs": [],
      "name": "calculateCurrentBalance",
      "outputs": [
        {
          "name": "",
          "type": "uint256"
        }
      ],
      "payable": false,
      "stateMutability": "view",
      "type": "function"
    },
    {
      "constant": false,
      "inputs": [],
      "name": "deductPenalty",
      "outputs": [],
      "payable": true,
      "stateMutability": "payable",
      "type": "function"
    },
    {
      "constant": false,
      "inputs": [],
      "name": "payIncentive",
      "outputs": [],
      "payable": true,
      "stateMutability": "payable",
      "type": "function"
    }
  ],
  "bytecode": "0x608060405234801561001057600080fd5b50600033905060326000808373ffffffffffffffffffffffffffffffffffffffff1673ffffffffffffffffffffffffffffffffffffffff168152602001908152602001600020819055505061032c8061006a6000396000f3fe608060405260043610610062576000357c0100000000000000000000000000000000000000000000000000000000900463ffffffff168063342fe24f14610067578063613b0c03146100925780639fcfaa68146100f7578063ddc2dba414610101575b600080fd5b34801561007357600080fd5b5061007c61010b565b6040518082815260200191505060405180910390f35b34801561009e57600080fd5b506100e1600480360360208110156100b557600080fd5b81019080803573ffffffffffffffffffffffffffffffffffffffff169060200190929190505050610151565b6040518082815260200191505060405180910390f35b6100ff610169565b005b610109610233565b005b60008060003373ffffffffffffffffffffffffffffffffffffffff1673ffffffffffffffffffffffffffffffffffffffff16815260200190815260200160002054905090565b60006020528060005260406000206000915090505481565b6000600a6000803373ffffffffffffffffffffffffffffffffffffffff1673ffffffffffffffffffffffffffffffffffffffff168152602001908152602001600020548115156101b557fe5b049050806000803373ffffffffffffffffffffffffffffffffffffffff1673ffffffffffffffffffffffffffffffffffffffff16815260200190815260200160002060008282540192505081905550600281908060018154018082558091505090600182039060005260206000200160009091929091909150555050565b6000600a6000803373ffffffffffffffffffffffffffffffffffffffff1673ffffffffffffffffffffffffffffffffffffffff1681526020019081526020016000205460030281151561028257fe5b049050806000803373ffffffffffffffffffffffffffffffffffffffff1673ffffffffffffffffffffffffffffffffffffffff1681526020019081526020016000206000828254039250508190555060038190806001815401808255809150509060018203906000526020600020016000909192909190915055505056fea165627a7a72305820c79f219ed803c23ff66fd609fd8d306b01645b5505eee866301ffe465af1b4390029",
  "source": "pragma solidity ^0.5.0;\n\ncontract RoadBehaviour{\n    mapping(address => uint) public coinBalances;\n    \n    \n    string ipfsHash;   //JSON object received from OpenCV. ipfsHash used to keep track of driver details and metrics\n    uint[] Rewards;\n    uint[] Penalties;\n    \n    \n    constructor() public {\n        address payable owner = msg.sender;\n        coinBalances[owner]=50;\n    }\n\n    function calculateCurrentBalance() public view returns (uint){\n        return coinBalances[msg.sender];\n    }\n    \n    //Check for drowziness in the front and update using the following\n\n    function deductPenalty() public payable {\n        uint penalty = (3*coinBalances[msg.sender])/10;\n        coinBalances[msg.sender] -= penalty;\n        Penalties.push(penalty);\n    }\n\n    function payIncentive() public payable {\n        uint reward = coinBalances[msg.sender ]/10;\n        coinBalances[msg.sender] += reward;\n        Rewards.push(reward);\n    }\n}",
  "sourcePath": "/Users/deebthik/Desktop/hackathon_files/rohan_repo/DeCrash/contracts/RoadBehaviour.sol",
  "compiler": {
    "name": "solc",
    "version": "0.5.0+commit.1d4f565a.Emscripten.clang"
  },
  "schemaVersion": "3.0.1",
  "updatedAt": "2019-01-20T08:16:57.340Z",
  "devdoc": {
    "methods": {}
  },
  "userdoc": {
    "methods": {}
  }
}